{
  "_format": "hh-sol-artifact-1",
  "contractName": "PredictionMarket",
  "sourceName": "contracts/PredictionMarket.sol",
  "abi": [
    {
      "inputs": [
        {
          "components": [
            {
              "internalType": "address",
              "name": "oracle",
              "type": "address"
            },
            {
              "internalType": "uint64",
              "name": "subscriptionId",
              "type": "uint64"
            },
            {
              "internalType": "bytes32",
              "name": "donId",
              "type": "bytes32"
            },
            {
              "internalType": "bytes",
              "name": "secrets",
              "type": "bytes"
            },
            {
              "internalType": "string",
              "name": "source",
              "type": "string"
            }
          ],
          "internalType": "struct Config",
          "name": "config",
          "type": "tuple"
        }
      ],
      "stateMutability": "nonpayable",
      "type": "constructor"
    },
    {
      "inputs": [],
      "name": "EmptyArgs",
      "type": "error"
    },
    {
      "inputs": [],
      "name": "EmptySecrets",
      "type": "error"
    },
    {
      "inputs": [],
      "name": "EmptySource",
      "type": "error"
    },
    {
      "inputs": [],
      "name": "GameAlreadyRegistered",
      "type": "error"
    },
    {
      "inputs": [],
      "name": "GameAlreadyStarted",
      "type": "error"
    },
    {
      "inputs": [],
      "name": "GameIsResolved",
      "type": "error"
    },
    {
      "inputs": [],
      "name": "GameNotReadyToResolve",
      "type": "error"
    },
    {
      "inputs": [],
      "name": "GameNotRegistered",
      "type": "error"
    },
    {
      "inputs": [],
      "name": "GameNotResolved",
      "type": "error"
    },
    {
      "inputs": [],
      "name": "InsufficientValue",
      "type": "error"
    },
    {
      "inputs": [],
      "name": "InvalidResult",
      "type": "error"
    },
    {
      "inputs": [],
      "name": "NoInlineSecrets",
      "type": "error"
    },
    {
      "inputs": [],
      "name": "NothingToClaim",
      "type": "error"
    },
    {
      "inputs": [],
      "name": "OnlyRouterCanFulfill",
      "type": "error"
    },
    {
      "inputs": [],
      "name": "ResolveAlreadyRequested",
      "type": "error"
    },
    {
      "inputs": [],
      "name": "TimestampInPast",
      "type": "error"
    },
    {
      "inputs": [],
      "name": "ValueTooHigh",
      "type": "error"
    },
    {
      "anonymous": false,
      "inputs": [
        {
          "indexed": true,
          "internalType": "address",
          "name": "user",
          "type": "address"
        },
        {
          "indexed": true,
          "internalType": "uint256",
          "name": "gameId",
          "type": "uint256"
        },
        {
          "indexed": false,
          "internalType": "uint256",
          "name": "amount",
          "type": "uint256"
        }
      ],
      "name": "Claimed",
      "type": "event"
    },
    {
      "anonymous": false,
      "inputs": [
        {
          "indexed": true,
          "internalType": "uint256",
          "name": "gameId",
          "type": "uint256"
        }
      ],
      "name": "GameRegistered",
      "type": "event"
    },
    {
      "anonymous": false,
      "inputs": [
        {
          "indexed": true,
          "internalType": "uint256",
          "name": "gameId",
          "type": "uint256"
        },
        {
          "indexed": false,
          "internalType": "enum PredictionMarket.Result",
          "name": "result",
          "type": "uint8"
        }
      ],
      "name": "GameResolved",
      "type": "event"
    },
    {
      "anonymous": false,
      "inputs": [],
      "name": "NoPendingRequest",
      "type": "event"
    },
    {
      "anonymous": false,
      "inputs": [
        {
          "indexed": true,
          "internalType": "address",
          "name": "user",
          "type": "address"
        },
        {
          "indexed": true,
          "internalType": "uint256",
          "name": "gameId",
          "type": "uint256"
        },
        {
          "indexed": false,
          "internalType": "enum PredictionMarket.Result",
          "name": "result",
          "type": "uint8"
        },
        {
          "indexed": false,
          "internalType": "uint256",
          "name": "amount",
          "type": "uint256"
        }
      ],
      "name": "Predicted",
      "type": "event"
    },
    {
      "anonymous": false,
      "inputs": [
        {
          "indexed": false,
          "internalType": "bytes",
          "name": "response",
          "type": "bytes"
        }
      ],
      "name": "RequestFailed",
      "type": "event"
    },
    {
      "anonymous": false,
      "inputs": [
        {
          "indexed": true,
          "internalType": "bytes32",
          "name": "id",
          "type": "bytes32"
        }
      ],
      "name": "RequestFulfilled",
      "type": "event"
    },
    {
      "anonymous": false,
      "inputs": [
        {
          "indexed": true,
          "internalType": "bytes32",
          "name": "id",
          "type": "bytes32"
        }
      ],
      "name": "RequestSent",
      "type": "event"
    },
    {
      "anonymous": false,
      "inputs": [
        {
          "indexed": false,
          "internalType": "uint256",
          "name": "sportId",
          "type": "uint256"
        },
        {
          "indexed": false,
          "internalType": "uint256",
          "name": "externalId",
          "type": "uint256"
        },
        {
          "indexed": false,
          "internalType": "bytes32",
          "name": "requestId",
          "type": "bytes32"
        }
      ],
      "name": "RequestedResult",
      "type": "event"
    },
    {
      "anonymous": false,
      "inputs": [
        {
          "indexed": false,
          "internalType": "bytes32",
          "name": "requestId",
          "type": "bytes32"
        },
        {
          "indexed": false,
          "internalType": "bytes",
          "name": "response",
          "type": "bytes"
        }
      ],
      "name": "ResultReceived",
      "type": "event"
    },
    {
      "inputs": [
        {
          "internalType": "uint256",
          "name": "gameId",
          "type": "uint256"
        },
        {
          "internalType": "uint256",
          "name": "wager",
          "type": "uint256"
        },
        {
          "internalType": "enum PredictionMarket.Result",
          "name": "result",
          "type": "uint8"
        }
      ],
      "name": "calculateWinnings",
      "outputs": [
        {
          "internalType": "uint256",
          "name": "",
          "type": "uint256"
        }
      ],
      "stateMutability": "view",
      "type": "function"
    },
    {
      "inputs": [
        {
          "internalType": "bytes",
          "name": "",
          "type": "bytes"
        }
      ],
      "name": "checkUpkeep",
      "outputs": [
        {
          "internalType": "bool",
          "name": "",
          "type": "bool"
        },
        {
          "internalType": "bytes",
          "name": "",
          "type": "bytes"
        }
      ],
      "stateMutability": "view",
      "type": "function"
    },
    {
      "inputs": [
        {
          "internalType": "uint256",
          "name": "gameId",
          "type": "uint256"
        }
      ],
      "name": "claim",
      "outputs": [],
      "stateMutability": "nonpayable",
      "type": "function"
    },
    {
      "inputs": [],
      "name": "donId",
      "outputs": [
        {
          "internalType": "bytes32",
          "name": "",
          "type": "bytes32"
        }
      ],
      "stateMutability": "view",
      "type": "function"
    },
    {
      "inputs": [],
      "name": "getActiveGames",
      "outputs": [
        {
          "components": [
            {
              "internalType": "uint256",
              "name": "sportId",
              "type": "uint256"
            },
            {
              "internalType": "uint256",
              "name": "externalId",
              "type": "uint256"
            },
            {
              "internalType": "uint256",
              "name": "timestamp",
              "type": "uint256"
            },
            {
              "internalType": "uint256",
              "name": "homeWagerAmount",
              "type": "uint256"
            },
            {
              "internalType": "uint256",
              "name": "awayWagerAmount",
              "type": "uint256"
            },
            {
              "internalType": "bool",
              "name": "resolved",
              "type": "bool"
            },
            {
              "internalType": "enum PredictionMarket.Result",
              "name": "result",
              "type": "uint8"
            }
          ],
          "internalType": "struct PredictionMarket.Game[]",
          "name": "",
          "type": "tuple[]"
        }
      ],
      "stateMutability": "view",
      "type": "function"
    },
    {
      "inputs": [
        {
          "internalType": "address",
          "name": "user",
          "type": "address"
        }
      ],
      "name": "getActivePredictions",
      "outputs": [
        {
          "components": [
            {
              "internalType": "uint256",
              "name": "gameId",
              "type": "uint256"
            },
            {
              "internalType": "enum PredictionMarket.Result",
              "name": "result",
              "type": "uint8"
            },
            {
              "internalType": "uint256",
              "name": "amount",
              "type": "uint256"
            },
            {
              "internalType": "bool",
              "name": "claimed",
              "type": "bool"
            }
          ],
          "internalType": "struct PredictionMarket.Prediction[]",
          "name": "",
          "type": "tuple[]"
        }
      ],
      "stateMutability": "view",
      "type": "function"
    },
    {
      "inputs": [
        {
          "internalType": "uint256",
          "name": "gameId",
          "type": "uint256"
        }
      ],
      "name": "getGame",
      "outputs": [
        {
          "components": [
            {
              "internalType": "uint256",
              "name": "sportId",
              "type": "uint256"
            },
            {
              "internalType": "uint256",
              "name": "externalId",
              "type": "uint256"
            },
            {
              "internalType": "uint256",
              "name": "timestamp",
              "type": "uint256"
            },
            {
              "internalType": "uint256",
              "name": "homeWagerAmount",
              "type": "uint256"
            },
            {
              "internalType": "uint256",
              "name": "awayWagerAmount",
              "type": "uint256"
            },
            {
              "internalType": "bool",
              "name": "resolved",
              "type": "bool"
            },
            {
              "internalType": "enum PredictionMarket.Result",
              "name": "result",
              "type": "uint8"
            }
          ],
          "internalType": "struct PredictionMarket.Game",
          "name": "",
          "type": "tuple"
        }
      ],
      "stateMutability": "view",
      "type": "function"
    },
    {
      "inputs": [
        {
          "internalType": "uint256",
          "name": "sportId",
          "type": "uint256"
        },
        {
          "internalType": "uint256",
          "name": "externalId",
          "type": "uint256"
        }
      ],
      "name": "getGameId",
      "outputs": [
        {
          "internalType": "uint256",
          "name": "",
          "type": "uint256"
        }
      ],
      "stateMutability": "pure",
      "type": "function"
    },
    {
      "inputs": [
        {
          "internalType": "address",
          "name": "user",
          "type": "address"
        }
      ],
      "name": "getPastPredictions",
      "outputs": [
        {
          "components": [
            {
              "internalType": "uint256",
              "name": "gameId",
              "type": "uint256"
            },
            {
              "internalType": "enum PredictionMarket.Result",
              "name": "result",
              "type": "uint8"
            },
            {
              "internalType": "uint256",
              "name": "amount",
              "type": "uint256"
            },
            {
              "internalType": "bool",
              "name": "claimed",
              "type": "bool"
            }
          ],
          "internalType": "struct PredictionMarket.Prediction[]",
          "name": "",
          "type": "tuple[]"
        }
      ],
      "stateMutability": "view",
      "type": "function"
    },
    {
      "inputs": [
        {
          "internalType": "bytes32",
          "name": "requestId",
          "type": "bytes32"
        },
        {
          "internalType": "bytes",
          "name": "response",
          "type": "bytes"
        },
        {
          "internalType": "bytes",
          "name": "err",
          "type": "bytes"
        }
      ],
      "name": "handleOracleFulfillment",
      "outputs": [],
      "stateMutability": "nonpayable",
      "type": "function"
    },
    {
      "inputs": [
        {
          "internalType": "address",
          "name": "user",
          "type": "address"
        },
        {
          "internalType": "uint256",
          "name": "gameId",
          "type": "uint256"
        },
        {
          "internalType": "uint32",
          "name": "predictionIdx",
          "type": "uint32"
        }
      ],
      "name": "isPredictionCorrect",
      "outputs": [
        {
          "internalType": "bool",
          "name": "",
          "type": "bool"
        }
      ],
      "stateMutability": "view",
      "type": "function"
    },
    {
      "inputs": [
        {
          "internalType": "bytes",
          "name": "data",
          "type": "bytes"
        }
      ],
      "name": "performUpkeep",
      "outputs": [],
      "stateMutability": "nonpayable",
      "type": "function"
    },
    {
      "inputs": [
        {
          "internalType": "uint256",
          "name": "gameId",
          "type": "uint256"
        },
        {
          "internalType": "enum PredictionMarket.Result",
          "name": "result",
          "type": "uint8"
        }
      ],
      "name": "predict",
      "outputs": [],
      "stateMutability": "payable",
      "type": "function"
    },
    {
      "inputs": [
        {
          "internalType": "uint256",
          "name": "gameId",
          "type": "uint256"
        }
      ],
      "name": "readyToResolve",
      "outputs": [
        {
          "internalType": "bool",
          "name": "",
          "type": "bool"
        }
      ],
      "stateMutability": "view",
      "type": "function"
    },
    {
      "inputs": [
        {
          "internalType": "uint256",
          "name": "sportId",
          "type": "uint256"
        },
        {
          "internalType": "uint256",
          "name": "externalId",
          "type": "uint256"
        },
        {
          "internalType": "uint256",
          "name": "timestamp",
          "type": "uint256"
        },
        {
          "internalType": "enum PredictionMarket.Result",
          "name": "result",
          "type": "uint8"
        }
      ],
      "name": "registerAndPredict",
      "outputs": [],
      "stateMutability": "payable",
      "type": "function"
    }
  ],
  "bytecode": "0x60a06040523480156200001157600080fd5b5060405162003661380380620036618339810160408190526200003491620001b0565b80516040820151602083015160808085015160608601516001600160a01b0386169092526003849055600280546001600160401b0319166001600160401b03851617905590600062000087838262000317565b50600162000096828262000317565b50505050505050620003e3565b634e487b7160e01b600052604160045260246000fd5b60405160a081016001600160401b0381118282101715620000de57620000de620000a3565b60405290565b80516001600160401b0381168114620000fc57600080fd5b919050565b600082601f8301126200011357600080fd5b81516001600160401b0380821115620001305762000130620000a3565b604051601f8301601f19908116603f011681019082821181831017156200015b576200015b620000a3565b816040528381526020925086838588010111156200017857600080fd5b600091505b838210156200019c57858201830151818301840152908201906200017d565b600093810190920192909252949350505050565b600060208284031215620001c357600080fd5b81516001600160401b0380821115620001db57600080fd5b9083019060a08286031215620001f057600080fd5b620001fa620000b9565b82516001600160a01b03811681146200021257600080fd5b81526200022260208401620000e4565b6020820152604083015160408201526060830151828111156200024457600080fd5b620002528782860162000101565b6060830152506080830151828111156200026b57600080fd5b620002798782860162000101565b60808301525095945050505050565b600181811c908216806200029d57607f821691505b602082108103620002be57634e487b7160e01b600052602260045260246000fd5b50919050565b601f8211156200031257600081815260208120601f850160051c81016020861015620002ed5750805b601f850160051c820191505b818110156200030e57828155600101620002f9565b5050505b505050565b81516001600160401b03811115620003335762000333620000a3565b6200034b8162000344845462000288565b84620002c4565b602080601f8311600181146200038357600084156200036a5750858301515b600019600386901b1c1916600185901b1785556200030e565b600085815260208120601f198616915b82811015620003b45788860151825594840194600190910190840162000393565b5085821015620003d35787850151600019600388901b60f8161c191681555b5050505050600190811b01905550565b60805161325b620004066000396000818161030701526124bb015261325b6000f3fe6080604052600436106100e85760003560e01c80636e04ff0d1161008a57806388c301b71161005957806388c301b7146102795780638dbe7b9d14610299578063a2f77bcc146102af578063ddbf7eb6146102dc57600080fd5b80636e04ff0d14610205578063714e2820146102335780637c4089231461025357806384ec1ed21461026657600080fd5b8063389beb59116100c6578063389beb591461015a5780633e36626f1461018a57806341eec10b146101b75780634585e33b146101e557600080fd5b80630ca76175146100ed5780631b76929c1461010f578063379607f51461013a575b600080fd5b3480156100f957600080fd5b5061010d610108366004612b1b565b6102fc565b005b34801561011b57600080fd5b5061012461036e565b6040516101319190612c0a565b60405180910390f35b34801561014657600080fd5b5061010d610155366004612c58565b6104cf565b34801561016657600080fd5b5061017a610175366004612c58565b610861565b6040519015158152602001610131565b34801561019657600080fd5b506101aa6101a5366004612c8d565b610889565b6040516101319190612ca8565b3480156101c357600080fd5b506101d76101d2366004612d26565b610b06565b604051908152602001610131565b3480156101f157600080fd5b5061010d610200366004612d5b565b610bfc565b34801561021157600080fd5b50610225610220366004612dcd565b610c15565b604051610131929190612e50565b34801561023f57600080fd5b506101d761024e366004612e6b565b610cff565b61010d610261366004612e8d565b610d0d565b61010d610274366004612ecc565b610d2d565b34801561028557600080fd5b506101aa610294366004612c8d565b611078565b3480156102a557600080fd5b506101d760035481565b3480156102bb57600080fd5b506102cf6102ca366004612c58565b6112ec565b6040516101319190612ef8565b3480156102e857600080fd5b5061017a6102f7366004612f06565b61138a565b336001600160a01b037f0000000000000000000000000000000000000000000000000000000000000000161461035e576040517fc6829f8300000000000000000000000000000000000000000000000000000000815260040160405180910390fd5b610369838383611518565b505050565b60055460609060009067ffffffffffffffff81111561038f5761038f612a78565b6040519080825280602002602001820160405280156103c857816020015b6103b56129f4565b8152602001906001900390816103ad5790505b50905060005b6005548110156104c95760076000600583815481106103ef576103ef612f4f565b906000526020600020015481526020019081526020016000206040518060e001604052908160008201548152602001600182015481526020016002820154815260200160038201548152602001600482015481526020016005820160009054906101000a900460ff161515151581526020016005820160019054906101000a900460ff16600281111561048457610484612b88565b600281111561049557610495612b88565b815250508282815181106104ab576104ab612f4f565b602002602001018190525080806104c190612f7b565b9150506103ce565b50919050565b6000818152600760209081526040808320815160e08101835281548152600182015493810193909352600280820154928401929092526003810154606084015260048101546080840152600581015460ff808216151560a0860152919260c08501926101009092049091169081111561054a5761054a612b88565b600281111561055b5761055b612b88565b90525060a0810151909150339061059e576040517fc105260a00000000000000000000000000000000000000000000000000000000815260040160405180910390fd5b6001600160a01b0381166000908152600860209081526040808320868452825280832080548251818502810185019093528083528493849084015b8282101561066c5783829060005260206000209060040201604051806080016040529081600082015481526020016001820160009054906101000a900460ff16600281111561062a5761062a612b88565b600281111561063b5761063b612b88565b8152600282015460208083019190915260039092015460ff16151560409091015290825260019290920191016105d9565b50505050905060005b81518110156107a457600082828151811061069257610692612f4f565b602002602001015190508060600151156106ac5750610792565b60008660c0015160028111156106c4576106c4612b88565b036106df5760408101516106d89085612f94565b9350610735565b8560c0015160028111156106f5576106f5612b88565b8160200151600281111561070b5761070b612b88565b036107355760006107258883604001518460200151610b06565b90506107318186612f94565b9450505b6001600160a01b03851660009081526008602090815260408083208a845290915290208054600191908490811061076e5761076e612f4f565b60009182526020909120600490910201600301805460ff1916911515919091179055505b8061079c81612f7b565b915050610675565b50816000036107df576040517f969bf72800000000000000000000000000000000000000000000000000000000815260040160405180910390fd5b6040516001600160a01b0384169083156108fc029084906000818181858888f19350505050158015610815573d6000803e3d6000fd5b5084836001600160a01b03167f987d620f307ff6b94d58743cb7a7509f24071586a77759b77c2d4e29f75a2f9a8460405161085291815260200190565b60405180910390a35050505050565b600081815260076020526040812060020154429061088290611c2090612f94565b1092915050565b60606000805b600654811015610904576001600160a01b038416600090815260086020526040812060068054919291849081106108c8576108c8612f4f565b9060005260206000200154815260200190815260200160002080549050826108f09190612f94565b9150806108fc81612f7b565b91505061088f565b506000808267ffffffffffffffff81111561092157610921612a78565b60405190808252806020026020018201604052801561097357816020015b60408051608081018252600080825260208083018290529282018190526060820152825260001990920191018161093f5790505b50905060005b600654811015610afd576001600160a01b038616600090815260086020526040812060068054839190859081106109b2576109b2612f4f565b90600052602060002001548152602001908152602001600020805480602002602001604051908101604052809291908181526020016000905b82821015610a7e5783829060005260206000209060040201604051806080016040529081600082015481526020016001820160009054906101000a900460ff166002811115610a3c57610a3c612b88565b6002811115610a4d57610a4d612b88565b8152600282015460208083019190915260039092015460ff16151560409091015290825260019290920191016109eb565b50505050905060005b8151811015610ae857818181518110610aa257610aa2612f4f565b6020026020010151848681518110610abc57610abc612f4f565b60200260200101819052508480610ad290612f7b565b9550508080610ae090612f7b565b915050610a87565b50508080610af590612f7b565b915050610979565b50949350505050565b6000838152600760209081526040808320815160e08101835281548152600182015493810193909352600280820154928401929092526003810154606084015260048101546080840152600581015460ff808216151560a086015285949360c0850192610100900490911690811115610b8157610b81612b88565b6002811115610b9257610b92612b88565b815250509050600081608001518260600151610bae9190612f94565b905060006001856002811115610bc657610bc6612b88565b14610bd5578260800151610bdb565b82606001515b610be58388612fa7565b610bef9190612fd4565b93505050505b9392505050565b6000610c0a82840184612c58565b905061036981611623565b600060606000610c2361036e565b905060005b8151811015610ce2576000610c77838381518110610c4857610c48612f4f565b602002602001015160000151848481518110610c6657610c66612f4f565b602002602001015160200151610cff565b9050610c8281610861565b8015610c9a5750600081815260096020526040902054155b15610ccf57600181604051602001610cb491815260200190565b60405160208183030381529060405294509450505050915091565b5080610cda81612f7b565b915050610c28565b506000604051806020016040528060008152509250925050915091565b608082901b81175b92915050565b6000610d1a8585856117aa565b9050610d268183610d2d565b5050505050565b6000828152600760209081526040808320815160e08101835281548152600182015493810193909352600280820154928401929092526003810154606084015260048101546080840152600581015460ff808216151560a0860152919260c085019261010090920490911690811115610da857610da8612b88565b6002811115610db957610db9612b88565b90525060208101519091503490600003610de65760405163e1ed333d60e01b815260040160405180910390fd5b8160a0015115610e0957604051633ecb222960e11b815260040160405180910390fd5b4282604001511015610e47576040517fba26162b00000000000000000000000000000000000000000000000000000000815260040160405180910390fd5b6509184e72a000811015610e87576040517f1101129400000000000000000000000000000000000000000000000000000000815260040160405180910390fd5b662386f26fc10000811115610ec8576040517f18dc18b300000000000000000000000000000000000000000000000000000000815260040160405180910390fd5b6001836002811115610edc57610edc612b88565b03610f0d5760008481526007602052604081206003018054839290610f02908490612f94565b90915550610f799050565b6002836002811115610f2157610f21612b88565b03610f475760008481526007602052604081206004018054839290610f02908490612f94565b6040517f7c599f8000000000000000000000000000000000000000000000000000000000815260040160405180910390fd5b33600090815260086020908152604080832087845282529182902082516080810190935286835291908101856002811115610fb657610fb6612b88565b81526020808201859052600060409092018290528354600181810186559483529181902083516004909302019182558201518184018054939492939192909160ff19169083600281111561100c5761100c612b88565b021790555060408281015160028301556060909201516003909101805460ff191691151591909117905551849033907f91e77fb24205f03d80d7656d447522f76b190a8ecd6d9d2a9e834b08e729fddc9061106a9087908690612fe8565b60405180910390a350505050565b60606000805b6005548110156110f3576001600160a01b038416600090815260086020526040812060058054919291849081106110b7576110b7612f4f565b9060005260206000200154815260200190815260200160002080549050826110df9190612f94565b9150806110eb81612f7b565b91505061107e565b506000808267ffffffffffffffff81111561111057611110612a78565b60405190808252806020026020018201604052801561116257816020015b60408051608081018252600080825260208083018290529282018190526060820152825260001990920191018161112e5790505b50905060005b600554811015610afd576001600160a01b038616600090815260086020526040812060058054839190859081106111a1576111a1612f4f565b90600052602060002001548152602001908152602001600020805480602002602001604051908101604052809291908181526020016000905b8282101561126d5783829060005260206000209060040201604051806080016040529081600082015481526020016001820160009054906101000a900460ff16600281111561122b5761122b612b88565b600281111561123c5761123c612b88565b8152600282015460208083019190915260039092015460ff16151560409091015290825260019290920191016111da565b50505050905060005b81518110156112d75781818151811061129157611291612f4f565b60200260200101518486815181106112ab576112ab612f4f565b602002602001018190525084806112c190612f7b565b95505080806112cf90612f7b565b915050611276565b505080806112e490612f7b565b915050611168565b6112f46129f4565b600082815260076020908152604091829020825160e08101845281548152600182015492810192909252600280820154938301939093526003810154606083015260048101546080830152600581015460ff808216151560a08501529293919260c0850192610100909204169081111561137057611370612b88565b600281111561138157611381612b88565b90525092915050565b6000828152600760209081526040808320815160e08101835281548152600182015493810193909352600280820154928401929092526003810154606084015260048101546080840152600581015460ff808216151560a086015285949360c085019261010090049091169081111561140557611405612b88565b600281111561141657611416612b88565b8152505090508060a0015161142f576000915050610bf5565b6001600160a01b03851660009081526008602090815260408083208784529091528120805463ffffffff861690811061146a5761146a612f4f565b9060005260206000209060040201604051806080016040529081600082015481526020016001820160009054906101000a900460ff1660028111156114b1576114b1612b88565b60028111156114c2576114c2612b88565b8152600282810154602083015260039092015460ff16151560409091015260c08401519192508111156114f7576114f7612b88565b8160200151600281111561150d5761150d612b88565b149695505050505050565b600083815260046020908152604080832081518083019092528054808352600190910154928201929092529103611578576040517fcc2c06e8c2af211800a3dfb77a73c9668872a3581c024937769881bba2e6596e90600090a150505050565b6000848152600460205260408120818155600101558151156115d1577ffcadac11e2860a0aa63d4dbae1b5a99187a87215cf2aeb44de442ed2771c4195826040516115c39190613003565b60405180910390a150505050565b7f11ee75453d1327abdfe4f7a8ad4821587837391f365bef110620811d7a2fa5918484604051611602929190613016565b60405180910390a161161d8160000151826020015185611973565b50505050565b6000818152600760209081526040808320815160e08101835281548152600182015493810193909352600280820154928401929092526003810154606084015260048101546080840152600581015460ff808216151560a0860152919260c08501926101009092049091169081111561169e5761169e612b88565b60028111156116af576116af612b88565b905250600083815260096020526040902054909150156116fb576040517f7ca6f48900000000000000000000000000000000000000000000000000000000815260040160405180910390fd5b80602001516000036117205760405163e1ed333d60e01b815260040160405180910390fd5b8060a001511561174357604051633ecb222960e11b815260040160405180910390fd5b61174c82610861565b611782576040517f3c428ab000000000000000000000000000000000000000000000000000000000815260040160405180910390fd5b611794816000015182602001516119a9565b6000928352600960205260409092209190915550565b60006117b68484610cff565b60008181526007602052604090206001015490915015611802576040517faa2d1d5f00000000000000000000000000000000000000000000000000000000815260040160405180910390fd5b4282101561183b576040517edfdf7a00000000000000000000000000000000000000000000000000000000815260040160405180910390fd5b6040518060e0016040528085815260200184815260200183815260200160008152602001600081526020016000151581526020016000600281111561188257611882612b88565b90526000828152600760209081526040918290208351815590830151600182015590820151600280830191909155606083015160038301556080830151600483015560a083015160058301805491151560ff1983168117825560c086015193919261ff001990911661ffff19909116179061010090849081111561190857611908612b88565b0217905550506005805460018101825560009182527f036b6384b5eca791c62761152d0c79bb0604c104a5fb6f4eb0703f3154bb3db0018390556040518392507f6ba49772de98d7caa0bbc51b24dfec5673a2f67fc9932e20e1295eca2947d43b9190a29392505050565b600061197f8484610cff565b9050600061198c8361302f565b600281111561199d5761199d612b88565b9050610d268282611aa8565b60408051600280825260608201909252600091829190816020015b60608152602001906001900390816119c45790505090506119e484611b72565b816000815181106119f7576119f7612f4f565b6020026020010181905250611a0b83611b72565b81600181518110611a1e57611a1e612f4f565b6020026020010181905250611a3281611c12565b6040805180820182528681526020808201878152600085815260048352849020925183555160019092019190915581518781529081018690529081018290529092507f2a0650c68b7078cb7c83312567fc42852e8814b9d1f921860a3e213fd91738319060600160405180910390a15092915050565b6000828152600760205260409020600501805482919061ff001916610100836002811115611ad857611ad8612b88565b02179055506000828152600760205260408120600501805460ff191660019081179091556006805491820181559091527ff652222313e28459528d920b65115c16c04f3efc82aaedc97be59f3f377c0d3f01829055611b3682611ded565b817fc476b09c91681b1e03ac948089793c804a27569df87c784dec68c1e1bf244a4d82604051611b669190613053565b60405180910390a25050565b60606000611b7f83611ed7565b600101905060008167ffffffffffffffff811115611b9f57611b9f612a78565b6040519080825280601f01601f191660200182016040528015611bc9576020820181803683370190505b5090508181016020015b600019017f3031323334353637383961626364656600000000000000000000000000000000600a86061a8153600a8504945084611bd357509392505050565b6000611c5d6040805161010081019091528060008152602001600081526020016000815260200160608152602001606081526020016060815260200160608152602001606081525090565b611cff60008060008054611c7090613061565b80601f0160208091040260200160405190810160405280929190818152602001828054611c9c90613061565b8015611ce95780601f10611cbe57610100808354040283529160200191611ce9565b820191906000526020600020905b815481529060010190602001808311611ccc57829003601f168201915b505050505084611fb9909392919063ffffffff16565b600060018054611d0e90613061565b90501115611db357611db360018054611d2690613061565b80601f0160208091040260200160405190810160405280929190818152602001828054611d5290613061565b8015611d9f5780601f10611d7457610100808354040283529160200191611d9f565b820191906000526020600020905b815481529060010190602001808311611d8257829003601f168201915b50505050508261205090919063ffffffff16565b825115611dc457611dc4818461209a565b610bf5611dd0826120dd565b60025460035467ffffffffffffffff909116906203d090906124b6565b6000805b600554811015611e39578260058281548110611e0f57611e0f612f4f565b906000526020600020015403611e2757809150611e39565b80611e3181612f7b565b915050611df1565b50805b600554611e4b90600190613095565b811015611eab576005611e5f826001612f94565b81548110611e6f57611e6f612f4f565b906000526020600020015460058281548110611e8d57611e8d612f4f565b60009182526020909120015580611ea381612f7b565b915050611e3c565b506005805480611ebd57611ebd6130a8565b600190038181906000526020600020016000905590555050565b6000807a184f03e93ff9f4daa797ed6e38ed64bf6a1f0100000000000000008310611f20577a184f03e93ff9f4daa797ed6e38ed64bf6a1f010000000000000000830492506040015b6d04ee2d6d415b85acef81000000008310611f4c576d04ee2d6d415b85acef8100000000830492506020015b662386f26fc100008310611f6a57662386f26fc10000830492506010015b6305f5e1008310611f82576305f5e100830492506008015b6127108310611f9657612710830492506004015b60648310611fa8576064830492506002015b600a8310610d075760010192915050565b8051600003611ff4576040517f22ce3edd00000000000000000000000000000000000000000000000000000000815260040160405180910390fd5b8383600281111561200757612007612b88565b9081600281111561201a5761201a612b88565b9052506040840182801561203057612030612b88565b9081801561204057612040612b88565b9052506060909301929092525050565b805160000361208b576040517fe889636f00000000000000000000000000000000000000000000000000000000815260040160405180910390fd5b60016020830152608090910152565b80516000036120d5576040517ffe936cb700000000000000000000000000000000000000000000000000000000815260040160405180910390fd5b60c090910152565b606060006120ec610100612588565b90506121366040518060400160405280600c81526020017f636f64654c6f636174696f6e0000000000000000000000000000000000000000815250826125a990919063ffffffff16565b825161215490600281111561214d5761214d612b88565b82906125c2565b60408051808201909152600881527f6c616e677561676500000000000000000000000000000000000000000000000060208201526121939082906125a9565b60408301516121aa90801561214d5761214d612b88565b60408051808201909152600681527f736f75726365000000000000000000000000000000000000000000000000000060208201526121e99082906125a9565b60608301516121f99082906125a9565b60a083015151156122535760408051808201909152601081527f726571756573745369676e61747572650000000000000000000000000000000060208201526122439082906125a9565b60a08301516122539082906125ff565b60c083015151156123005760408051808201909152600481527f6172677300000000000000000000000000000000000000000000000000000000602082015261229d9082906125a9565b6122a68161260c565b60005b8360c00151518110156122f6576122e68460c0015182815181106122cf576122cf612f4f565b6020026020010151836125a990919063ffffffff16565b6122ef81612f7b565b90506122a9565b5061230081612630565b608083015151156124015760008360200151600281111561232357612323612b88565b0361235a576040517fa80d31f700000000000000000000000000000000000000000000000000000000815260040160405180910390fd5b60408051808201909152600f81527f736563726574734c6f636174696f6e000000000000000000000000000000000060208201526123999082906125a9565b6123b28360200151600281111561214d5761214d612b88565b60408051808201909152600781527f736563726574730000000000000000000000000000000000000000000000000060208201526123f19082906125a9565b60808301516124019082906125ff565b60e083015151156124ae5760408051808201909152600981527f6279746573417267730000000000000000000000000000000000000000000000602082015261244b9082906125a9565b6124548161260c565b60005b8360e00151518110156124a4576124948460e00151828151811061247d5761247d612f4f565b6020026020010151836125ff90919063ffffffff16565b61249d81612f7b565b9050612457565b506124ae81612630565b515192915050565b6000807f00000000000000000000000000000000000000000000000000000000000000006001600160a01b031663461d27628688600188886040518663ffffffff1660e01b815260040161250e9594939291906130be565b6020604051808303816000875af115801561252d573d6000803e3d6000fd5b505050506040513d601f19601f820116820180604052508101906125519190613108565b60405190915081907f1131472297a800fee664d1d89cfa8f7676ff07189ecc53f80bbb5f4969099db890600090a295945050505050565b612590612a43565b805161259c908361264e565b5060006020820152919050565b6125b682600383516126c5565b815161036990826127e6565b81516125cf9060c2612807565b506125fb82826040516020016125e791815260200190565b6040516020818303038152906040526125ff565b5050565b6125b682600283516126c5565b612617816004612870565b60018160200181815161262a9190612f94565b90525050565b61263b816007612870565b60018160200181815161262a9190613095565b60408051808201909152606081526000602082015261266e602083613121565b156126965761267e602083613121565b612689906020613095565b6126939083612f94565b91505b6020808401839052604051808552600081529081840101818110156126ba57600080fd5b604052509192915050565b60178167ffffffffffffffff16116126ec57825161161d9060e0600585901b168317612807565b60ff8167ffffffffffffffff161161272e578251612715906018611fe0600586901b1617612807565b50825161161d9067ffffffffffffffff83166001612887565b61ffff8167ffffffffffffffff1611612771578251612758906019611fe0600586901b1617612807565b50825161161d9067ffffffffffffffff83166002612887565b63ffffffff8167ffffffffffffffff16116127b657825161279d90601a611fe0600586901b1617612807565b50825161161d9067ffffffffffffffff83166004612887565b82516127cd90601b611fe0600586901b1617612807565b50825161161d9067ffffffffffffffff83166008612887565b604080518082019091526060815260006020820152610bf58383845161290c565b604080518082019091526060815260006020820152825151600061282c826001612f94565b90508460200151821061284d5761284d85612848836002612fa7565b6129dd565b8451602083820101858153508051821115612866578181525b5093949350505050565b815161036990601f611fe0600585901b1617612807565b60408051808201909152606081526000602082015283515160006128ab8285612f94565b905085602001518111156128c8576128c886612848836002612fa7565b600060016128d886610100613219565b6128e29190613095565b90508651828101878319825116178152508051831115612900578281525b50959695505050505050565b604080518082019091526060815260006020820152825182111561292f57600080fd5b835151600061293e8483612f94565b9050856020015181111561295b5761295b86612848836002612fa7565b855180518382016020019160009180851115612975578482525b505050602086015b602086106129b55780518252612994602083612f94565b91506129a1602082612f94565b90506129ae602087613095565b955061297d565b51815160001960208890036101000a0190811690199190911617905250849150509392505050565b81516129e9838361264e565b5061161d83826127e6565b6040518060e00160405280600081526020016000815260200160008152602001600081526020016000815260200160001515815260200160006002811115612a3e57612a3e612b88565b905290565b6040518060400160405280612a6b604051806040016040528060608152602001600081525090565b8152602001600081525090565b634e487b7160e01b600052604160045260246000fd5b600082601f830112612a9f57600080fd5b813567ffffffffffffffff80821115612aba57612aba612a78565b604051601f8301601f19908116603f01168101908282118183101715612ae257612ae2612a78565b81604052838152866020858801011115612afb57600080fd5b836020870160208301376000602085830101528094505050505092915050565b600080600060608486031215612b3057600080fd5b83359250602084013567ffffffffffffffff80821115612b4f57600080fd5b612b5b87838801612a8e565b93506040860135915080821115612b7157600080fd5b50612b7e86828701612a8e565b9150509250925092565b634e487b7160e01b600052602160045260246000fd5b60038110612bbc57634e487b7160e01b600052602160045260246000fd5b9052565b805182526020810151602083015260408101516040830152606081015160608301526080810151608083015260a0810151151560a083015260c081015161036960c0840182612b9e565b6020808252825182820181905260009190848201906040850190845b81811015612c4c57612c39838551612bc0565b9284019260e09290920191600101612c26565b50909695505050505050565b600060208284031215612c6a57600080fd5b5035919050565b80356001600160a01b0381168114612c8857600080fd5b919050565b600060208284031215612c9f57600080fd5b610bf582612c71565b602080825282518282018190526000919060409081850190868401855b82811015612d0a5781518051855286810151612ce388870182612b9e565b50808601518587015260609081015115159085015260809093019290850190600101612cc5565b5091979650505050505050565b803560038110612c8857600080fd5b600080600060608486031215612d3b57600080fd5b8335925060208401359150612d5260408501612d17565b90509250925092565b60008060208385031215612d6e57600080fd5b823567ffffffffffffffff80821115612d8657600080fd5b818501915085601f830112612d9a57600080fd5b813581811115612da957600080fd5b866020828501011115612dbb57600080fd5b60209290920196919550909350505050565b600060208284031215612ddf57600080fd5b813567ffffffffffffffff811115612df657600080fd5b612e0284828501612a8e565b949350505050565b6000815180845260005b81811015612e3057602081850181015186830182015201612e14565b506000602082860101526020601f19601f83011685010191505092915050565b8215158152604060208201526000612e026040830184612e0a565b60008060408385031215612e7e57600080fd5b50508035926020909101359150565b60008060008060808587031215612ea357600080fd5b843593506020850135925060408501359150612ec160608601612d17565b905092959194509250565b60008060408385031215612edf57600080fd5b82359150612eef60208401612d17565b90509250929050565b60e08101610d078284612bc0565b600080600060608486031215612f1b57600080fd5b612f2484612c71565b925060208401359150604084013563ffffffff81168114612f4457600080fd5b809150509250925092565b634e487b7160e01b600052603260045260246000fd5b634e487b7160e01b600052601160045260246000fd5b600060018201612f8d57612f8d612f65565b5060010190565b80820180821115610d0757610d07612f65565b8082028115828204841417610d0757610d07612f65565b634e487b7160e01b600052601260045260246000fd5b600082612fe357612fe3612fbe565b500490565b60408101612ff68285612b9e565b8260208301529392505050565b602081526000610bf56020830184612e0a565b828152604060208201526000612e026040830184612e0a565b805160208083015191908110156104c95760001960209190910360031b1b16919050565b60208101610d078284612b9e565b600181811c9082168061307557607f821691505b6020821081036104c957634e487b7160e01b600052602260045260246000fd5b81810381811115610d0757610d07612f65565b634e487b7160e01b600052603160045260246000fd5b67ffffffffffffffff8616815260a0602082015260006130e160a0830187612e0a565b61ffff9590951660408301525063ffffffff92909216606083015260809091015292915050565b60006020828403121561311a57600080fd5b5051919050565b60008261313057613130612fbe565b500690565b600181815b8085111561317057816000190482111561315657613156612f65565b8085161561316357918102915b93841c939080029061313a565b509250929050565b60008261318757506001610d07565b8161319457506000610d07565b81600181146131aa57600281146131b4576131d0565b6001915050610d07565b60ff8411156131c5576131c5612f65565b50506001821b610d07565b5060208310610133831016604e8410600b84101617156131f3575081810a610d07565b6131fd8383613135565b806000190482111561321157613211612f65565b029392505050565b6000610bf5838361317856fea26469706673582212204a87b9f8d61f9537ff2e151577ea9c1e26613cdba1a6fee0911118b1084e001564736f6c63430008130033",
  "linkReferences": {},
  "deployedLinkReferences": {}
}